:020000040800F2
:10000000E827002045020008DD470008DD39000828
:10001000F5460008852A0008E58800080000000071
:100020000000000000000000000000008B7A0008C3
:100030000B2E000800000000D3600008B18000080B
:100040005F0200085F0200085F0200085F0200080C
:100050005F0200085F0200085F0200085F020008FC
:100060005F0200085F0200085F0200085F020008EC
:100070005F0200085F0200085F0200085F020008DC
:100080005F0200085F0200085F0200085F020008CC
:100090005F0200085F0200085F0200085F020008BC
:1000A0005F0200085F0200085F0200085F020008AC
:1000B000398100085D8100085F0200085F020008C6
:1000C0005F0200085F0200085F0200085F0200088C
:1000D0005F02000895840008C98400085F020008D8
:1000E0005F0200085F0200085F0200085F0200086C
:1000F0005F0200085F0200085F0200085F0200085C
:100100005F0200085F0200085F0200085F0200084B
:10011000B98200085F0200085F0200085F02000861
:100120005F0200085F0200085F0200085F0200082B
:1001300000F002F800F076F80AA090E8000C824483
:100140008344AAF10107DA4501D100F06BF8AFF260
:10015000090EBAE80F0013F0010F18BFFB1A43F0A5
:100160000103184750C0000070C000000A444FF05F
:10017000000C10F8013B13F0070408BF10F8014B06
:100180001D1108BF10F8015B641E05D010F8016B4B
:10019000641E01F8016BF9D113F0080F1EBF10F8AF
:1001A000014BAD1C0C1B09D16D1E58BF01F801CBD2
:1001B000FAD505E014F8016B01F8016B6D1EF9D555
:1001C0009142D6D37047000000230024002500266A
:1001D000103A28BF78C1FBD8520728BF30C148BFAA
:1001E0000B60704766290BF0E886642900F0968062
:1001F000752900F09380782900F0CC8000207047AA
:100200001FB501F027F90400002000210BF002FACD
:10021000401C6060002000210BF0E6F9E0601FBD8B
:1002200010B510BD01F0DEFB1146FFF7E9FF0AF043
:1002300053F901F039FE03B4FFF7F2FF03BC08F0F5
:1002400093FE00000948804709480047FEE7FEE7A3
:10025000FEE7FEE7FEE7FEE7FEE7FEE7FEE7FEE776
:1002600004480549054A064B70470000D98000083C
:1002700031010008E8210020E8270020E8230020C1
:10028000E8230020704700000FB4044910B503AA0A
:10029000029800F0E5FD10BC5DF814FB240400207A
:1002A0000FB41CB5074B06AA7B446946009005981D
:1002B00000F0BDFD0020694600F0CCFD1CBC5DF8DF
:1002C00014FB0000A90B000070B5044685690068A6
:1002D000C10601D5302600E02026C00708D070BD39
:1002E000D4E9012130469047206A00F101002062E4
:1002F0006D1EF5D570BD70B5044685690078C007E0
:1003000008D170BDD4E9012120209047206A00F176
:10031000010020626D1EF5D570BD00002DE9F04191
:100320000646002410687529314616A511D0AFF392
:100330000080002803DAC0F1000013A507E031684F
:100340008A0701D511A502E0490704D510A50124AB
:1003500001E0AFF3008000210A2306F1240707E043
:10036000B0FBF3F203FB1200303078541046491C06
:100370000028F5D123462A463046BDE8F04100F07A
:10038000E5BA0000000000002D0000002B00000076
:100390002000000070B504460D4621461068AFF3FA
:1003A00000802188090502D5104A7A4402E00F4AEC
:1003B0007A440E32002104F1240307E000F00F0616
:1003C0004FEA1010965D5E5401F101010028F5D14D
:1003D00003462078000704D5702D02D009B11132F0
:1003E00002232046BDE8704000F0B0BA0CBD00000A
:1003F0002DE9F05F894604464FF0000ADFF878B136
:10040000FB44C0F820A02046E1688847002875D04A
:10041000252806D0D4E901219047206A401C20629B
:10042000F1E700265F462046E16888472028054618
:1004300008DB312D06D207EB050010F8200C08B1BF
:100440000643F0E7B00701D526F00406C4F81CA067
:100450000027C4F818A02A2D09D0284608F0A3FCCC
:1004600038B304EB8708303DC8F8185019E059F844
:10047000041B204604EB87029161E1688847012F45
:10048000054618D1E069002820DA26F020061DE094
:10049000D8F8180000EB800005EB40003038C8F8B1
:1004A00018002046E1688847054608F07CFC0028D3
:1004B000EED1012F0AD02E2D08D12046E1688847C1
:1004C0007F1C0546022F46F02006C4DBA0690028E9
:1004D00003DA404246F00106A061F00701D026F0A1
:1004E00010066C2D0BD0682D09D04C2D39D06A2DFB
:1004F00035D0742D35D07A2D33D016E038E0E16850
:100500002F4620468847B842054609D16C2F26D091
:100510004FF48060E168064320468847054604E0C2
:100520006C2F1AD04FF4807006430DB3A5F1410033
:10053000192802D8203546F400664A462946204646
:1005400026604E46FFF74EFE80B101280BD0F61D07
:1005500026F0070000F1080955E74020E4E7802075
:10056000D8E70020D6E706F104094CE7284651E712
:10057000206ABDE8F09F0000DEBC00000FB400B5AB
:100580008DB010A9099000910B904FF0FF300A90A8
:1005900000200C90064878440690064878446A4645
:1005A00007900F9909A800F0D3FE0DB05DF814FB79
:1005B000D70D0000EF0D00002DE9FF5F1D464FF045
:1005C000FF3B91464FF000085F46D5E90146A96917
:1005D00001987F1C8847296A824688470028F6D1FF
:1005E0001AF101000CD0002E24F4C06419DD60065D
:1005F00014D5BAF12B0F09D0BAF12D0F0ED103E0AB
:10060000584604B0BDE8F09F44F48064A96901989D
:100610007F1C8847761E8246002E02DDBAF1300F1D
:1006200003D0B9F1000F26D032E0A969761E0198F7
:100630007F1C44F400748847002E824605DDBAF121
:10064000780F06D0BAF1580F03D0B9F1000F10D0CF
:100650001EE0B9F1000F02D0B9F1100F18D1A9694D
:10066000761E01987F1C24F400748847824610206F
:1006700002E0082000E00A20814609E0A96908FBA1
:100680000908761E01987F1C44F40074884782464E
:10069000002E05DD4946504600F0F4FB0028EDDA57
:1006A000E96901988847A00502D46FF00100A8E726
:1006B000E00727D1600614D5600502D5C8F1000017
:1006C00000E04046296801F104022A600968220519
:1006D00001D5087016E0220701D5088012E00860F5
:1006E00010E0286800F1040129600068210502D5A6
:1006F00080F8008006E0210702D5A0F8008001E024
:10070000C0F8008038467CE710B5431C02E010F8C2
:10071000011B71B18107FAD14FF0013202C88C1A66
:100720008C4314EAC211F9D0C01A0A0603D0C01EC5
:1007300010BDC01A10BD0A0401D0801E10BD0902F0
:10074000FCD0401E10BD4FF0000200B51346944689
:100750009646203922BFA0E80C50A0E80C50B1F119
:100760002001BFF4F7AF090728BFA0E80C5048BF2D
:100770000CC05DF804EB890028BF40F8042B08BFCB
:10078000704748BF20F8022B11F0804F18BF00F8C7
:10079000012B7047014900F00BBE000058210020DA
:1007A00030B503681C1404EB21459BB289B219448F
:1007B00095FBF2F402FB145301EB034191FBF2F3BE
:1007C00002FB131101E05B1E11440029FBDB0160F9
:1007D00003EB044030BD2DE9F04704464FF0FF3AEB
:1007E00086B00068029060680390A0680490E0689A
:1007F0000190206900906569B5F1804F7EDCB5F10C
:10080000404F7BDB3C22002102A8FFF7C9FF3C22BE
:10081000014603A8FFF7C4FF1822014604A8FFF70A
:10082000BFFF411E40F2B55201A8FFF7B9FF0C22ED
:10083000064668460021FFF7B3FF00EB8600284418
:100840003E4D00267D440FE09A1A491CCDE9001266
:10085000022902D00C2907D104E0810704D0521CE0
:10086000019201E0401C00960099019B6A5C9A424B
:10087000EADD012906D11C2B04D1810702D0022117
:10088000CDE90016A0F146018B2940D20199009BC9
:1008900000220F4602E0AE5C521C31449A42FADB61
:1008A000012B02DD820700D0491E40F2B55540F20F
:1008B0006D16C21700EB927292106A4300F00305A6
:1008C00005FB062285070A4400D1521E049D02EB57
:1008D0004206DDF80C80A94605EBC605184EC5EBAF
:1008E0000515DDF808C008EB850535442E14ADB2BA
:1008F000C6EB0616C5EB0515B60000E007E00CEBED
:10090000850506EB154666F31F45360C03D05046A9
:1009100006B0BDE8F0877F1CC4E90430521C0720F4
:1009200092FBF0F304F1180600FB1320A6E8030481
:100930002846C4E90297C4E900C8E9E7ABB800005B
:10094000A039CEFD70477047704770472DE9F047DA
:100950000D4699469246044600F12408016888062F
:1009600004D5E06921F01001216000E00120A842D7
:1009700002DDA0EB050700E00027A16907EB0502F7
:1009800002EB0900A1EB0000A0612078C00602D4B0
:100990002046FFF799FC002608E0D4E901211AF867
:1009A00006009047206A401C761C20624E45F4DB0E
:1009B0002078C0060AD52046FFF786FC06E0D4E979
:1009C000012130209047206A401C2062381EA7F188
:1009D0000107F4DC07E0D4E9012118F8050090478D
:1009E000206A401C2062281EA5F10105F3DC204688
:1009F000FFF781FC2078000602D50220BDE8F087D1
:100A00000120FBE770472DE9FF4F0C461E464FF0D3
:100A1000FF378BB0D2E90001DDF860800A908A468A
:100A2000C1F30A5505B93D46002108464FF00000C4
:100A3000BAF1000F00F4400005DA00EB80004FF43B
:100A4000400101EA50004FEA9059B9F1010F00DD71
:100A5000B9460A9850EA4A000ED044F61050A5F262
:100A6000FF3545432F14B8F1000F1ED07542291EE3
:100A70001EDDC9F100021CE0B8F1010F4FF00000CB
:100A800001D0302103E0F24305E02154401CB04284
:100A9000FBDB30460022002121540B99C1F808806D
:100AA000C1E900200FB0BDE8F08FBD1B6D1CDEE773
:100AB0004A4600DA694206A800F01AFF06AB07CBE7
:100AC00003AB07C350460A9901F047FA8DE80700C7
:100AD000A0F500501F3800900398002D09DD42F268
:100AE0001F014A46084403A90390684601F0D1FC5F
:100AF00008E0A0F500504A461F3803A90390684655
:100B000001F0EFFC8DE807000004000C03D04FF06B
:100B1000FF30410800E01046B8F1000F03D000227A
:100B2000009215461FE0751E06D400F09BFC02F1F2
:100B3000300262556D1EF8D5B3460122084302D03B
:100B400000227F1C04E02078302801D100227F1E83
:100B5000002A099787D01DE0112D07DA00F082FCEA
:100B6000303262556D1C50EA0102F5D108430FD1B5
:100B70000021681E05E0235C625C6354491C22541A
:100B8000401E8142F7DBAB46A81B401E099001E0E6
:100B9000009848B1002004F80B000B98099AC0F89F
:100BA0000880C0E9002B7DE711264FF000085AE7C6
:100BB0002DE9F04F88460446D21D22F0070191B07E
:100BC000D1E90001CDE90A0108F072F802460B985C
:100BD000C00F01D02D2007E02068810701D52B2010
:100BE00002E0202101EAC000032A099001D0072A6F
:100BF00005DB03464146204600F082FC0FE12078E9
:100C0000800601D5E06900E00620B8F1650F814655
:100C100006D0B8F1660F18D0B8F1670F72D132E084
:100C20000020B9F1110F009001DB112301E009F15F
:100C300001030AAA01A90CA8FFF7E5FEDDE90C7083
:100C4000002609F10105834648E001204B4600904B
:100C50004FF000470AAA01A90CA8FFF7D4FEDDE96E
:100C60000DB00C995D46002618B909F1010001EBA1
:100C70000005B9EB050003D4C0F1FF3609F1010509
:100C8000A5EB09002BE0B9F1010F01DA4FF00109E2
:100C90000020B9F1110F0090484601DD112300E05A
:100CA00003460AAA01A90CA8FFF7ADFEDDE90C7006
:100CB0004D4600268346207800070AD4AB4500DA6B
:100CC0005D4601A8012D04DD411911F8011C3029F0
:100CD00007D04F4502DA17F1040F04DA01208246EB
:100CE00010E06D1EEEE7002F02DCED1B3E4403E03A
:100CF000781CA84200DD0546A7EB060000F1010ABA
:100D00004FF000472078000703D4AA4501DB4FF0DD
:100D1000FF3A0021B7F1004F0DF143088DF8431061
:100D200023D002202B23002F01DA7F422D234FF006
:100D30000A0C011EA0F1010000DC4FB197FBFCF191
:100D40000CFB11720F4602F1300208F8012DF0E79A
:100D5000A8F1010003702188090501D5452100E0B3
:100D60006521A0F1010800F8011C09980FA9A1EB69
:100D7000080707F1070700B1012000EB050101EBAF
:100D8000EA70A1693844A1EB0000A0F10100A06164
:100D90002078C00602D42046FFF796FA099830B1B1
:100DA000D4E901219047206A00F1010020622078F7
:100DB000C00620D52046FFF787FA1CE0002E04DB92
:100DC000B34502DD01A8805D00E03020D4E90121B7
:100DD0009047206A761C401CBAF1010A20620AD1B1
:100DE00000F038FBC0680168405CD4E901219047FD
:100DF000206A401C2062281EA5F10105DEDC07E008
:100E0000D4E9012118F8010B9047206A401C2062A8
:100E1000381EA7F10107F3DC2046FFF76CFA022029
:100E200011B040E601694A1C02610878704700B5BC
:100E30008FB0CDE901310021059105497944CDE913
:100E4000031011466846FFF7D3FA0FB000BD00004B
:100E5000E5FFFFFF0A6802F8010B0A607047000017
:100E6000074B70B50D467B44FFF7E1FF044628466B
:100E700000F0B0FD10B14FF0FF3070BD204670BDE6
:100E8000379400003A2800D2303820F02002412A5E
:100E900001D3A2F13700884201D34FF0FF307047F1
:100EA0002DE9FF4F064689B00878FF2806D0491C77
:100EB0002D2805D000244FF0000908E000200CE0A8
:100EC0000124F8E709EB8903491C00EB4309087882
:100ED000FF28F7D114B1C9F1000081461078002530
:100EE0002C46AA4629462D2801D02B2804D1521C75
:100EF0002D2813D0002082468B461078FF280FD073
:100F00004FF0000C0A21521CA5FB017804FB018163
:100F100005FB0C11C5194BEB0104EEE70120EAE7D4
:100F2000002108464FF00000BAF1000F02D000EB9C
:100F300080004008C0F38158B8F1010F01DD4FF087
:100F4000FF380C9809EB000755EA040006D14FEA78
:100F5000CA70C6E900B00DB0BDE8F08F17F5FA7F92
:100F60004FF0020904DA4FEACA70C6E900B00BE09C
:100F7000B7F5FA7F0DDDF0487844D0E90010C6E9F6
:100F8000001040EACA70706000F068FAC0F8009083
:100F9000E1E7391E02DAC8F1000200E0424600DA59
:100FA000794206A800F0A4FC06AB07CB03AB07C34D
:100FB00044F23E005BEA04010090584604D144F23A
:100FC0001E012C465D460091210C0904014306D107
:100FD0000099240444EA15442D041039009104F0CA
:100FE0007F41014306D10099240244EA15642D0291
:100FF0000839009104F07041014306D100992401A1
:1010000044EA15742D01091F009104F04041014389
:1010100006D10099A40044EA9574AD00891E0091A0
:1010200004F00041084304D100986D196441401E4A
:10103000009042466846002FCDE9014503A902DD34
:1010400001F063FA01E001F038FABAF1000F04464A
:101050000D4601D084F0004440F2FF7724F00040B8
:10106000284303D0C4F30A50B84212D100F0F6F975
:10107000C0F80090C4F30A50B8420AD1AF4878448F
:10108000D0E90010C6E9001004F000410843706088
:1010900061E7C6E900545EE72DE9FF4F1F464FF0B8
:1010A000000A4FF0FF38454691B0D7E90146CDF828
:1010B0003CA000F0CFF9C0680168405C1090B969AD
:1010C00012986D1C8847396A814688470028F6D1F6
:1010D00019F101000AD0002E24F4D06412DDB9F118
:1010E0002B0F08D0B9F12D0F0CD102E0404615B0FE
:1010F00032E744F48064B96912986D1C88478146D0
:10110000A6F10106600504A901D52D2000E02B20E1
:10111000002E01F1010B0DF130088DF810003FDDBC
:10112000B9F1690F08D0B9F1490F05D0B9F16E0FC7
:1011300002D0B9F14E0F1CD13B4601A80095A0E8A2
:101140005002DDE912126FF002000AF09CFFC11C90
:10115000CDD10EE0B96912986D1C8847814613986D
:10116000761E44F4007405600F98401C002E0F900A
:1011700016DDB9F1300FEDD0B9F1780F02D0B9F129
:10118000580F0DD10F9801280AD13B46CDE90054E4
:10119000DDE91212001F02960AF073FFC11CA6D1EE
:1011A000109989453ED144F0800406E01399681CEB
:1011B000AAF1010A44F400740860B969761E129815
:1011C0006D1C884730288146F0D02BE01099894566
:1011D00005D1200603D4761E44F0800418E048466A
:1011E00007F0E1FD08B3761E0DF123018B4544F4B1
:1011F000007408D2A9F130000BF8010B200607D5C6
:10120000AAF1010003E0200602D40AF1010082469F
:10121000A00502D51399681C0860B96912986D1C65
:1012200088478146002ED1DC54E0002E52DDB9F112
:10123000650F02D0B9F1450F4CD1A0054AD5B96967
:10124000761E12986D1C24F440748847002E814647
:101250000DDD2B2804D0B9F12D0F08D144F4807492
:10126000B96912986D1C88478146A6F10106E00510
:1012700001D52D2100E02B2108F8011BCDF80080BD
:1012800021E0761E0DF13901884544F400740CD23A
:10129000A9F1300010F0FF0088F8000002D1009999
:1012A000884509D908F1010806E0E00501D5244880
:1012B00001E042F20F708246B96912986D1C8847AE
:1012C000814613980560002E04DD484607F06BFD4B
:1012D0000028D6D1F96912988847FF2053468BF829
:1012E000000088F8000000200A900B9004AA0CA9C6
:1012F0000AA8FFF7D5FDA00502D46FF00100F6E6BD
:1013000014F0240F0AD0E00714D13868DDE90A127E
:10131000031D3B600068C0E900120BE00AA96846A3
:1013200007F0EAFCE00705D13868009A011D396032
:10133000006802602846DAE658B2000052B10000A8
:10134000F1D8FFFF02681144137801601846704716
:10135000D160054979445161044979441162002101
:101360001161114600F00CB9EDFFFFFF9101000083
:10137000426842B1016811F8013B23B1521EC0E935
:101380000012184670470121C160881E70474268EC
:101390005AB1C368016843B983688B4205D0491EBE
:1013A000521CC0E90012002070474FF0FF30704718
:1013B00070B50C46016800204A1C34D040F2B55587
:1013C0003C23B1FBF3F203FB12112160B2FBF3F1FA
:1013D00003FB112218236260B1FBF3F203FB12112D
:1013E000A16046F2E0310A440721B2FBF1F301FBB0
:1013F0001321B2FBF5F305FB1322A1619900B2F5AD
:10140000B77F06D3521EAD10B2FBF5F3194405FBAE
:1014100013220F4BE261616189077B440CD03B2AA8
:101420000AD3521C08E02C212046FFF78CF901203A
:10143000E0600AE0521A401C195C9142FAD9521C31
:10144000C4E903204FF0FF302062204670BD000049
:10145000D5AC000000487047A42100200048704728
:101460008421002030B5B0F10A024FEA900E71F1EC
:1014700000034EEA817EB0EB0E0061EB91014FEA72
:10148000101E4EEA017E10EB0E0041EB11114FEAE7
:10149000102E4EEA016E10EB0E0041EB11214FEAC7
:1014A000104E4EEA014E10EB0E0041EB1141401878
:1014B00041F100014FEAD00040EA41704FEAD1010A
:1014C00010EB80054FEA810444EA907444EB010478
:1014D0006D1944EB0404521BA3414FF0000348BFB5
:1014E0000A3200D530BD401C41F1000130BD10B5BD
:1014F000044600F09DFA0068005D00F0010010BD98
:101500002DE9F0411F46044603260168072A01F42D
:10151000006004DB08B116A505E016A503E008B1DC
:1015200015A500E015A521F010002060A069C01EDF
:10153000A0610FB1401EA0612046FEF7C5FE4FB16D
:10154000D4E9012138469047206A401C2062C01C23
:10155000206206E0206AFAE7D4E9012115F8010BC0
:101560009047761EF8D22046FEF7C5FEBDE8F08112
:101570004E414E006E616E00494E4600696E660037
:101580002DE9F34F4FF0000A0C4656468DB001206E
:101590000C9001F10C000B9062690B9801219047AF
:1015A00005002DD0252D2CD0216A8847C0B1626955
:1015B0000B9801219047216A88470028F7D162697A
:1015C000411E0B98904700E0761CA1690D98884752
:1015D000216A88470028F7D1E1690D988847DBE741
:1015E000A1690D988847A842074601D1761CD3E728
:1015F000E1690D9888477F1C02D1BAF1000F6FD0C6
:101600006AE162690B9800273D46394690472A28CF
:1016100004D162690B98012190470125DFF8CC8243
:1016200062690B9801219047A0F130010A290AD282
:101630004745E5DC07EB870100EB4107303FDFD48E
:1016400045F01005ECE7E90601D46FF000476C287F
:101650000AD04C2814D0682815D06A280DD07428D8
:101660001CD07A281AD01DE062690B98012190479E
:101670006C2802D045F0040514E045F002050DE0A9
:1016800045F020050AE062690B980121904768281F
:1016900002D045F0080505E045F4006562690B9845
:1016A00001219047C4E9015765283DD019DC58282D
:1016B00079D00CDC452837D004DC252826D04128F9
:1016C0009ED131E046282FD0472899D12CE05B28C5
:1016D0007FD0612828D063287BD0642890D159E03E
:1016E000F5E06F2847D008DC66281DD067281BD09E
:1016F000692821D06E2816D127E0702844D073289D
:1017000067D0752846D078280DD14CE0A1690D9896
:101710008847252805463FF469AFE1690D98884759
:101720006D1C3FF46AAFD7E00D9923466A466FF00F
:1017300001000AF0A4FCC4E045F0400023464FF04D
:1017400000026060A80735D43DE0206800F1040184
:1017500021600068290501D506701DE7290701D51C
:10176000068019E7A90704D54FEAE671C0E90061D0
:1017700012E7066010E745F0400023464FF00802EC
:101780006060A80716D41EE040F60E0125EA0100AD
:10179000606016E045F0400023464FF00A026060AA
:1017A000A80707D40FE045F040006060A80708D5FF
:1017B000234610220D996FF00100AFF3008080E006
:1017C00007E0102223460D996FF00100FEF7F4FEAA
:1017D00077E04FF0000963284F46C8464B46CB469A
:1017E00002D05B2806D038E0E80601D40120A060D2
:1017F000012732E06269D4F80CB00B9801219047C0
:101800005E2807D14FF0010949466269D4F80CB04F
:101810000B989047216939B900210B4603AA42F879
:101820002130491C0829FADBD8B3216949B308F1F2
:10183000010862690B98012190475D28F4D1B9F144
:10184000000F09D0002003A951F82020D24341F80D
:101850002020401C0828F7DB03AB206900282079F2
:101860004FEA40701ED05B462246CDF80080CDE99D
:1018700001970D9900286FF0010020DAAFF3008086
:101880001FE0C11700EBD16203A9531122F01F0220
:1018900001EB8301821A0B680120904003430B6027
:1018A000C7E719E00D99224600286FF00100009764
:1018B00002DAAFF3008004E0AFF3008001E0AFF3A1
:1018C000008000280ADA401C06D10C9820B14FF0A5
:1018D000FF300FB0BDE8F08F5046FAE7E90701D1BD
:1018E0000AF1010A064400200C9055E6CCCCCC0C41
:1018F0002DE9F047814616468AB035487844D0E94C
:10190000002380680092CDE90130314878440C38DA
:10191000D0E90223006903924FF03702CDE9043089
:1019200041F69B30014491FBF2F0A0F1800502FBEF
:1019300010141B3C02D56442012000E00020DFF8B7
:1019400090A080460027FA44AAF1C60A0DE0E007FD
:1019500009D03246684607EB47010AEB810100F0E7
:10196000C0FD8DE8070064107F1C002CEFD1184FDC
:101970007F44B43F17E0E80713D007EB04100DF1E4
:10198000180A90E80E00AAE80E00C068F04201D1E3
:1019900098190890324606A903A800F0A2FD03ABEF
:1019A00007C36D10641C002DE5D132466946B8F1BD
:1019B000000F03A802D000F06CFD01E000F091FDE3
:1019C000C9E90001C9F808200AB0BDE8F0870000A5
:1019D0007CA80000007B00F0800070470048704742
:1019E000842100207546FFF7F9FFAE4605006946E1
:1019F000534620F00700854618B020B5FEF730FCAE
:101A0000BDE820404FF000064FF000074FF00008FF
:101A10004FF0000B21F00701AC46ACE8C009ACE880
:101A2000C009ACE8C009ACE8C0098D4670470000A9
:101A300010B5FFF70FFD001D10BD00BFD99B0000C2
:101A400010B5FFF70BFD006810BD10B50446FFF799
:101A500005FD046010BD00002DE9FF4F1F464FF04B
:101A60003C0987B04FF00042DDE9141001F1010894
:101A7000DDF858A002EA405003900020049083460D
:101A8000054604460590B969461E08988847AAF19C
:101A9000010A0290BAF1000F37DD02982E2815D006
:101AA0001021FFF7EFF900282ADB4FF0010B049912
:101AB000014316D0B9F1000F0BDB4A46C11700F005
:101AC00039FA05430C43A9F1040905E0012005900A
:101AD00007E008B145F0010501200490059800B920
:101AE000361DB969089808F101088847BBF1000F55
:101AF000AAF1010A0290CDD00999C1F80080C9E786
:101B00000298702808D0502806D0F96908988847AC
:101B1000BBF1000F14D04FE0002002900120BBF178
:101B2000000F049009D0B969089808F101088847A6
:101B3000AAF10109B9F1000F07DCF9690898884793
:101B40006FF001000BB0BDE8F08F2B2804D02D28DA
:101B50000CD14FF0FF300490B969089808F10108E2
:101B60008847A9F10109B9F1000FE6DD411CE4D075
:101B70000A21FFF787F90028DFDB029908F1010845
:101B800001EB810100EB41000290B9690898884798
:101B90000A21FFF777F9099AA9F10109B9F1000FB4
:101BA000C2F8008001DD0028E7DAF9690898884763
:101BB0000499029800FB016655EA040001D10398DC
:101BC0009CE004F04041090004D1A40044EA95746B
:101BD000AD00B61E04F00041080002D16D19644149
:101BE000761E159810F0240F03D04FF00B095C48B7
:101BF00003E04FF028096FF07D008246564507DA72
:101C0000AAEB06018944B9F1410F01DD4FF041090A
:101C100001200021A9F1010200F08CF902462840C0
:101C20000B462140084301D0012100E00021501E55
:101C3000029143F1FF3128402140084301D00120A7
:101C400000E000200299834651EA0B014FD00021A9
:101C500008464FF00000039900F4400039B100EB52
:101C600080004FF4400100EBD07001EA6000801565
:101C7000012802DD4FF0FF3000E013D0401C36D0C9
:101C8000029860B3BBF1000F0CD14A46012000213D
:101C900000F050F928402140084301D0012000E025
:101CA0000020E0B101204A46002100F043F903463C
:101CB00040190A4661412D1A8C4111D3B9F1400FE8
:101CC00009DD159810F0240F02D0AAF1340603E0C4
:101CD000AAF1170600E0761C00254FF0004406E04C
:101CE0005B1E42F1FF3220EA030521EA0204CAF139
:101CF0000100B04206DA1B49039808430190002016
:101D000000900EE0039AC4F3D321E80A0A4316496F
:101D100040EA44500A433146CDE90002684607F0E4
:101D200037F8159810F0240F0BD01598C00715D16F
:101D30003868DDE90012031D3B600068C0E900124D
:101D40000CE002A8694606F0D7FF1598C00705D138
:101D50003868029A011D3960006802604046F1E669
:101D600002FCFFFF0000F07F0000F03F2DE9FF4F75
:101D700092461D4685B04FF00041DDE9124BDDE98A
:101D800014727F1E01EA4B50434940F0FF4940EA7C
:101D90000108002122F020004928049102D04E2899
:101DA0002BD04FE03DA00126D0E9001280680091C1
:101DB000CDE90120A9690698641C88477F1E014669
:101DC00006D41DF8060018B121F0200181420BD085
:101DD000E96906988847032E34D0082E32D06FF078
:101DE000010009B0BDE8F08F761C032E01D0082E4B
:101DF000E0D1601CCAF80000DCE7A9690698641C01
:101E000088477F1E2AD420F02000412826D1A969C6
:101E10000698641C88477F1E20D420F020004E289E
:101E20001CD1A9690698641C88477F1E48F40028C5
:101E300049F48009CAF8004001D4282806D0E9698D
:101E4000069888475FEACB7012D022E0A96906980D
:101E5000641C88477F1E01D4002803DAE9690698CC
:101E60008847BCE72928F1D1641CCAF80040E9E79B
:101E70001BF0240F07D028680499031D2B6000680D
:101E8000C0E9001805E02868021D2A600068C0F853
:101E900000902046A5E700000000F07F494E46492B
:101EA0004E495459000000000446AFF3008020461C
:101EB000FEF7C1F94FF0013C50F8042B51F8043BF8
:101EC0009A4221D1A2EB0C03934313EACC1317D10E
:101ED00050F8042B51F8043B9A4215D1A2EB0C03A5
:101EE000934313EACC130BD150F8042B51F8043B65
:101EF0009A4209D1A2EB0C03934313EACC13DBD033
:101F00004FF00000704700BFD01A01BAB1FA81F15A
:101F100001F0180122FA01F0CB40C1F12001DBB23F
:101F2000C0B2C01A2CFA01F3D11A914311EAC311BD
:101F3000E6D17047B2F120030AD5C2F1200301FABD
:101F400002F120FA03F300FA02F041EA03017047BC
:101F500000FA03F14FF0000070475FEA400C08BF41
:101F600091F0000F4FEA8C234FEAC12243EA51510E
:101F70004FEA1C5018BF00F5F0404FEA300018BF80
:101F800041F000415FEA6C5C00F02980BCF1FF3F4A
:101F900008BF40F080407047130C06BF12044FF09A
:101FA000100C4FF0000C130E04BF12020CF1080CC1
:101FB000130F04BF12010CF1040C930F04BF920025
:101FC0000CF1020CD30F04BF52000CF1010C1146AE
:101FD0004FF00002A0F11F00A0EB0C00704711F0C1
:101FE000004F08BF704731F000413FF4D5AF0B0CF4
:101FF00006BF09044FF0100C4FF0000C0B0E04BF8D
:1020000009020CF1080C0B0F04BF09010CF1040CC0
:102010008B0F04BF89000CF1020CCB0F04BF4900E9
:102020000CF1010CCCF12003A0EB0C0022FA03F31D
:1020300002FA0CF241EA030100F10100704720F0BE
:102040007F4C80EA030023F07F47ACEB070303F5E6
:102050007C5300F0004003F1FF032DE980494FEA73
:10206000154B09B44FEA144325EA0B4E24EA034802
:102070000FF2042606EB132749083E785FEA320286
:1020800003FB0667C7F5000707FB06F64FEA543760
:102090004FEAD64606F1020607FB066CCCF1005C5F
:1020A0004FEA1C472CEA074C07FB06F40CFB06F52D
:1020B00004EB15464FEA961634BF00204FF000405F
:1020C0004FEAD13706FB07FC4FEA1C4C0CFB0BF721
:1020D000D21B03FB0CF761EB07010CFB0EF7B0EB17
:1020E000074072EB17420CFB08F734BFA2EB074224
:1020F000B2EB074261EB17414FEA0C444FEA9107FC
:1021000006FB07FC4FEA1C4C0CFB0BF7B0EBC7407F
:1021100072EB573203FB0CF734BFA2EBC742B2EBB2
:10212000C74261EB57310CFB0EF7B0EBC70072EB07
:1021300057720CFB08F734BFA2EBC702B2EBC70221
:1021400061EB5771039F4FEA816141EA921104EB01
:10215000CC044FEAD1374FEA826206FB07FC42EA21
:1021600090124FEA80604FEA1C4C0CFB0BF7D21B1D
:1021700003FB0CF761EB07010CFB0EF7B0EB07401C
:1021800072EB17420CFB08F734BFA2EB0742B2EB2D
:10219000074261EB17414FEA8C554FEA910704EB78
:1021A0009C2406FB07FC4FEA1C4C0CFB0BF7B0EB26
:1021B000C74072EB573203FB0CF734BFA2EBC742A8
:1021C000B2EBC74261EB57310CFB0EF7B0EBC70027
:1021D00072EB57720CFB08F734BFA2EBC702B2EBED
:1021E000C70261EB577115EB4C254FEA816141EA5B
:1021F00092114FEA82624FEAD13742EA901206FB0F
:1022000007FC44F100044FEA80604FEA1C4C0CFBD1
:102210000BF7D21B03FB0CF761EB07010CFB0EF76E
:10222000B0EB074072EB17420CFB08F734BFA2EB90
:102230000742B2EB074261EB174115EB1C154FEA61
:10224000813141EA92414FEA823242EA90424FEABA
:1022500080304FEA0C7644F1000448EA03434EEA2A
:102260000B484FF0000EB2EB080C71EB030724BFD4
:10227000624639464EEB0E0E4FF0000B00185241ED
:1022800049414BEB0B0BB2EB080C71EB03077BF1F5
:10229000000B24BF624639464EEB0E0E4FF0000B8A
:1022A0000018524149414BEB0B0BB2EB080C71EBA0
:1022B00003077BF1000B24BF624639464EEB0E0E3E
:1022C00051EA020718BF46F0010616EB0E7655F1EB
:1022D000000254F1000103D5BDE88901BDE8008882
:1022E000BDE88901BDE80048B619524141EB010142
:1022F000A3F10103704780807F7E7D7C7B7A7978B3
:10230000777676757473727171706F6E6E6D6C6CBA
:102310006B6A6A696868676666656464636362615C
:102320006160605F5F5E5E5D5D5C5C5B5B5A5A59DD
:102330005958585757565655555554545353525249
:102340005251515050504F4F4F4E4E4D4D4D4C4CA1
:102350004C4B4B4B4A4A4A494949484848474747EA
:102360004746464645454544444444434343434227
:10237000424242414141000046EA0646A3F57053FD
:102380004FEA164646EA42564FEAD22242EA415204
:1023900010B54FEAD121A3F1010300F017F820F0A6
:1023A000004000F1010C00F0004701EB0050114625
:1023B000BCF5006F40EA070000D210BD02484FF0A4
:1023C000000140EA070010BD0000F07F002B26D47A
:1023D000770021D01CB54FEA370703B44FF0100047
:1023E0004FF010014FF000000FBCBDE810400BF1A2
:1023F000010BBBF1010F08BF5FEA170722BF12F103
:10240000010211F101014FF0004143F1000300F01E
:10241000004043EA00007047F9D35708DAE746EA7C
:10242000064613F1400F4FEA16461FDD13F1200F49
:10243000DFBF16430A46002120335B42C8D0C3F1F8
:10244000200746EA064602FA07F74FEA164646EA2A
:102450000706C3F1200722FA03F201FA07F721FA6F
:1024600003F14FF0000342EA0702B1E746EA020631
:1024700046EA06464FEA164646EA0106BCBF46EA69
:102480000646360C4FF000034FF000024FF00001FB
:102490009EE72DE9C048934630B491E8380007C85C
:1024A00031EA400C48BF34EA430C03D5FFF7C7FDBF
:1024B000FFF78CFFF0BCBDE800882DE9C0489346CB
:1024C00030B491E8380007C831EA400C48BF34EA1C
:1024D000430C03D5FFF7B3FDFFF74EFFF0BCBDE89B
:1024E00000882DE9C048934630B491E8380007C809
:1024F00010F0804F08BF13F0804F03D100F019F89F
:10250000FFF764FFF0BCBDE800882DE9C0489346A2
:1025100030B491E8380007C810F0804F08BF13F0BE
:10252000804F03D100F005F8FFF726FFF0BCBDE8AF
:10253000008820F07F4780EA030023F07F4C07EB00
:102540000C03A3F57C5300F00040A3F1FE0392F0CE
:10255000000F00F0B38095F0000F00F077802DE9B8
:1025600001494FEA11404FEA144621EA004800FBB6
:1025700006FC24EA064708FB06F607FB08F800FB02
:1025800007F718EB06484CEB164C4FEA124B18EBCA
:1025900007484FEA15464CEB174022EA0B4E0BFB5F
:1025A00006FC25EA06470EFB06F607FB0EFE0BFBB4
:1025B00007F71EEB064E4CEB164C4FF000061EEBD9
:1025C000074E4CEB174B18EB0B0840F1000018EBD3
:1025D0000E0B58EB000840F100008F1A4FF000017D
:1025E0003CBFC943661B14BFB5EB040C00213CBFC4
:1025F000C943F61B4FEA17444EEA8E0E27EA0445FC
:102600004FEA1C4704FB07622CEA074C05FB07F75F
:102610000CFB05F604FB0CFC16EB074642EB1742DD
:1026200016EB0C4642EB1C421BEB060658EB020273
:10263000414146EA9E0601D5BDE80189B6195241DD
:1026400041EB0101A3F10103BDE801894FEA144503
:102650004FEA114724EA054621EA074C05FB07F437
:1026600006FB07F70CFB06F105FB0CFC11EB074121
:1026700044EB17444FEA124711EB0C4144EB1C4466
:1026800022EA074C05FB07F206FB07F70CFB06F6F0
:1026900005FB0CFC16EB074642EB174216EB0C460B
:1026A00042EB1C456A1854F1000148BF7047B61947
:1026B000524141EB0101A3F10103704795F0000F76
:1026C00037D04FEA11424FEA144721EA024624EA82
:1026D000074C02FB07F106FB07F70CFB06F402FBB5
:1026E0000CFC14EB074441EB17414FEA154714EB80
:1026F0000C4441EB1C4125EA074C02FB07F506FBA5
:1027000007F70CFB06F602FB0CFC16EB074645EB45
:10271000174516EB0C4645EB1C42121951F100010E
:1027200048BF7047B619524141EB0101A3F10103C3
:1027300070474FEA14454FEA114724EA054621EA5B
:10274000074C05FB07F106FB07F70CFB06F24FF001
:10275000000605FB0CFC12EB074241EB174112EBA4
:102760000C4251EB1C4148BF7047921841EB0101EC
:10277000A3F101037047F0B5034600201AE0178863
:1027800013F800C087EA0C07178000240EE01688B3
:1027900006F0010517887F1017802DB117884AF2BF
:1027A000010C87EA0C071780671CBCB2082CEEDB13
:1027B000471CB8B28842E2DBF0BD704770B50446F2
:1027C0000D46164600F018F8B12005F0A1F82320B8
:1027D00005F09EF8200A05F09BF8E0B205F098F8A5
:1027E000280A05F095F8E8B205F092F8F0B205F085
:1027F0008FF800F00BFB70BD10B5EE2005F088F8E7
:102800004FF6FF700149088010BD00007A040020D7
:102810008B4A92F872208B4B1A60894AB2F9740085
:10282000B2F8762091B201EB0042874B1A601A464B
:102830001268642A02DA4FF416521A60814A12684A
:1028400012B901227F4B1A607E4A12787F4B1A70B0
:102850007B4A92F87C207E4B1A70794AB2F87C2031
:10286000120A5A70764A92F87A209A70744AB2F82C
:102870007A20120ADA70724A92F878201A71704A35
:1028800092F88220734B1A706D4AB2F88220120AB5
:102890005A706B4A92F880209A70694AB2F8802088
:1028A000120ADA70664A92F87E201A71644A92F827
:1028B0008A20694B1A70624AB2F88A20120A5A704A
:1028C0005F4A92F888209A705D4AB2F88820120A0E
:1028D000DA705B4A92F886201A71594AB2F886205B
:1028E000120A5A71564A92F884209A71544AB2F8E0
:1028F0008420120ADA71524A92F88E20574B1A70CD
:102900004F4AB2F88E20120A5A704D4A92F88C2023
:102910009A704B4AB2F88C20120ADA70484A92F840
:1029200092204F4B1A70464AB2F89220120A5A70FF
:10293000434A92F890209A70414AB2F89020120AC5
:10294000DA703F4A92F8A020464B1A703C4AB2F81F
:10295000A020120A5A703A4A92F89E209A70384A79
:10296000B2F89E20120ADA70354A92F89C201A7149
:10297000334AB2F89C20120A5A71314A92F89A20CE
:102980009A712F4AB2F89A20120ADA712C4A92F8F8
:1029900098201A722A4AB2F89820120A5A72284AC3
:1029A00092F896209A72264AB2F89620120ADA72A3
:1029B000234A92F894201A73214AB2F89420120AFA
:1029C0005A731A465278303A1B7802EB0312264BA0
:1029D0001A70244AD278303A224B9B7802EB0312C9
:1029E000224B1A701F4A5279303A1E4B1B7902EB68
:1029F00003121F4B1A701B4AD279303A194B9B793C
:102A000002EB03121B4B1A70164A527A303A154BDE
:102A10001B7A02EB0312184B1A70124AD27A303A20
:102A2000104B9B7A02EB0312144B1A700D4A527B27
:102A3000303A0C4B1B7B02EB0312114B1A707047A0
:102A4000FE1E0020840200207C0200207C04002066
:102A5000890200208F020020950200209E020020A3
:102A6000A3020020A8020020FF0200200003002093
:102A700001030020020300200303002004030020C0
:102A80000503002000BFFEE72DE9F04105460C4696
:102A90000B49204609F014F980464FF08F4109F0A8
:102AA0000FF90746074908F0ADFF0646304609F022
:102AB00087F887B23946284601F050F8BDE8F08122
:102AC000CDCCCC3D000020402DE9F04704460D461A
:102AD0000026012C00D100E00126134850F82610F2
:102AE000284609F0EDF88046104850F82610404678
:102AF00008F01AFF07460E49384609F0E1F881460A
:102B00004FF08F4109F0DCF880460A4908F07AFF5F
:102B10000746384609F054F81FFA80F84146204627
:102B200001F01CF8BDE8F0874C02002054020020A0
:102B3000CDCCCC3D00002040F8B505460C46002623
:102B40004FF6FF700090022C0BDB601E295CA01E6C
:102B5000285C41EA0026A01E81B26A462846FFF79B
:102B60000AFEBDF80000864201D10120F8BD002018
:102B7000FCE70000002122480078042835DD2148C8
:102B80000078214A127890422AD11E4840780128C4
:102B900013D01C48407802280FD01A4840780328E8
:102BA0000BD018484078042807D0164840780528EC
:102BB00003D014484078062801D1082117E01148B5
:102BC00040780F2803D00F484078102804D10D48D2
:102BD000807900F109010AE00020094A107070476D
:102BE0000020074A10700120F9E70220F7E70448A7
:102BF0000078884201D10320F1E70220EFE70000CE
:102C0000A0040020101C00207C0400202DE9F047C7
:102C1000264827490978405C20B1012805D00228C0
:102C200009D105E02348046805E02248446800BF54
:102C30002048C46800BF00BF4FF081451B4A1C4BB1
:102C40001B78D25C1C4B53F82210184A184B1B7887
:102C5000D35C194A203252F8230009F039F9804632
:102C60002946164809F034F98146414608F0CAFE63
:102C700006460E490E4A12788A5C0F49203151F8F7
:102C80002200314609F01CF880460C4909F015F97C
:102C900007463146204609F013F88046394608F0C9
:102CA00043FE04462046BDE8F08700000E0C0020DD
:102CB000DD020020400D00208C0B00200000A04110
:102CC0002DE9F047264827490978405C20B10128C2
:102CD00005D0022809D105E02348046805E0224810
:102CE000446800BF2048C46800BF00BF4FF0814562
:102CF0001B4A1C4B1B78D25C1C4B53F82210184A01
:102D0000184B1B78D35C194A203252F8230009F083
:102D1000DFF880462946164809F0DAF88146414630
:102D200008F070FE06460E490E4A12788A5C0F497A
:102D3000203151F82200314608F0C2FF80460C498C
:102D400009F0BBF807463146204608F0B9FF804637
:102D5000394608F0E9FD04462046BDE8F08700004A
:102D6000160C0020DD020020400D0020CC0B0020BE
:102D70000000A04170B504460D461646FFF73CFD25
:102D8000B12004F0C5FD332004F0C2FD200A04F098
:102D9000BFFDE0B204F0BCFD280A04F0B9FDE8B2C2
:102DA00004F0B6FDF0B204F0B3FD00F02FF870BDF2
:102DB0002DE9F04105460E4617461C46DDF8188001
:102DC000FFF71AFDB12004F0A3FD352004F0A0FDAB
:102DD000280A04F09DFDE8B204F09AFD300A04F0E0
:102DE00097FDF0B204F094FDF8B204F091FD200AD2
:102DF00004F08EFDE0B204F08BFD2146404605F064
:102E000005F800F003F8BDE8F081704710B50A48F6
:102E10000488200A04F07CFDE0B204F079FDFF2074
:102E200004F076FDFC2004F073FDFF2004F070FD3B
:102E3000FF2004F06DFD10BD7A0400200149C86038
:102E4000704700000020024030B5A525042400F0A2
:102E50008FF800B100254FF4302000F0F3F804465D
:102E6000042C3AD11E481F4988601F4888600846D4
:102E7000006940F0200008610846006940F0400009
:102E800008614FF4302000F0DDF80446042C1BD11B
:102E90001448006941F6DF7108401249086108468C
:102EA000006940F01000086110480580E00200F061
:102EB000C9F80446052C10D00A48006941F6EF71A4
:102EC00008400849086108E0052C06D0054800695B
:102ED00041F6EF71084003490861204630BD00000B
:102EE0002301674500200240AB89EFCD00F8FF1FAA
:102EF00030B5044604254FF4302000F0A3F8054611
:102F0000042D17D10C48006940F002000A490861FD
:102F100008464461006940F0400008614FF43020E9
:102F200000F090F805460448006941F6FD7108403C
:102F300001490861284630BD0020024004200B49A9
:102F4000C96811F0010F01D001200EE00749C968DE
:102F500011F0040F01D0022007E00449C96811F004
:102F6000100F01D0032000E0042070470020024031
:102F700000200449C96911F0020F01D0012000E0CE
:102F800000207047002002400148006A704700009E
:102F9000002002400348006940F0800001490861B8
:102FA000704700000020024078B506460C46042514
:102FB00000200090E80200F045F80546042D24D1D9
:102FC0001348006940F00100114908613480E802AB
:102FD00000F038F80546042D10D1B01C0090200CEC
:102FE00000990880E80200F02DF8054608480069BD
:102FF00041F6FE7108400649086106E00448006990
:1030000041F6FE71084002490861284678BD00007B
:103010000020024001460020034A106800F03800FA
:103020000843106070470000002002400248034936
:10303000486003484860704723016745002002400C
:10304000AB89EFCD00B502460423FFF777FF0346B7
:1030500003E0FFF773FF0346521E012B01D1002A44
:10306000F7D102B90523184600BD08B50090BDF898
:1030700000200A80BDF802204A8008BD08B501463C
:103080000091009808BD000008B50121152003F04B
:10309000F5FB4FF4C050ADF8000003208DF802009E
:1030A00010208DF803006946164800F02FF84FF401
:1030B0008051144800F0BCF84FF40061114800F052
:1030C000B9F84FF46070ADF8000003208DF80200ED
:1030D00010208DF8030069460B4800F017F84FF4F4
:1030E0006071094800F0A4F80120ADF80000032049
:1030F0008DF8020004208DF803006946024800F0B4
:1031000005F808BD00080140001001402DE9F0411C
:10311000024600250026002000230024002791F805
:1031200003C00CF00F0591F803C01CF0100F03D082
:1031300091F802C04CEA050591F800C0BCF1000FFF
:1031400031D0146800202BE04FF0010C0CFA00F392
:10315000B1F800C00CEA03069E4220D183004FF074
:103160000F0C0CFA03F7BC4305FA03FC4CEA040409
:1031700091F803C0BCF1280F06D14FF0010C0CFAF6
:1031800000FCC2F814C00AE091F803C0BCF1480F7B
:1031900005D14FF0010C0CFA00FCC2F810C0401C25
:1031A0000828D1D31460B1F800C0BCF1FF0F34DDA2
:1031B000546800202EE000F1080C4FF0010808FAD6
:1031C0000CF3B1F800C00CEA03069E4221D1830043
:1031D0004FF00F0C0CFA03F7BC4305FA03FC4CEA62
:1031E000040491F803C0BCF1280F05D100F1080CCC
:1031F00008FA0CF8C2F8148091F803C0BCF1480F2B
:1032000007D100F1080C4FF0010808FA0CF8C2F8D9
:103210001080401C0828CED35460BDE8F0810246DF
:10322000002093680B4201D0012000E0002070478D
:1032300041617047016170477CB500208DF8040042
:103240008DF805008DF806008DF80700FD4AFE494F
:103250009B2003F0A4FC002458E0A100F94A52F896
:10326000210005F045F8F94941F82400012101EB5E
:103270008401F44A52F8210005F03AF8F34920316C
:1032800041F82400022101EB8401EE4A52F82100AA
:1032900005F02EF8EE4941F82400032101EB8401EA
:1032A000E84A52F8210005F023F8E949203141F8B5
:1032B0002400E64951F8240005F00EFD18B1002065
:1032C000E24941F82400E149203151F8240005F099
:1032D00003FD20B10021DD48203040F82410DC49F6
:1032E00051F8240005F0F8FC18B10020D84941F845
:1032F0002400D749203151F8240005F0EDFC20B11D
:103300000021D348203040F82410641C082CA4DB92
:10331000CC49D1F8800001A905F043F89DF80500DB
:10332000CC49087008460078012801DD00200870AB
:103330009DF80700C749487008464078012801DD1C
:1033400000204870BF49D1F8840004F0D1FFC24981
:103350000860BC49D1F8880004F0CAFFBE49486043
:10336000B849D1F88C0004F0C3FFBC490860B549E6
:10337000D1F8900004F0BCFFB8494860B64908682D
:1033800005F0AAFC18B14FF07E50B3490860B2496D
:10339000486805F0A1FC18B14FF07E50AE49486076
:1033A000AE49086805F098FC18B14FF07E50AB4963
:1033B0000860AA49486805F08FFC18B14FF07E50AC
:1033C000A64948609F49D1F8940001A904F0E9FF9B
:1033D0009DF80400A249087008460078A1490870C9
:1033E0009F480078012802DD00209D4908709DF863
:1033F00005009D4908709DF806009C4908709A4890
:103400000078012802DD002097490870974800786D
:10341000012802DD002095490870002461E0262182
:1034200001EBC401874A52F8210004F089FF90495A
:1034300041F82400272101EBC401824A52F82100FF
:1034400004F07EFF8A49243141F82400282101EB51
:10345000C4017C4A52F8210004F072FF84494831CB
:1034600041F82400292101EBC401764A52F82100D9
:1034700004F066FF7E496C3141F824002A2101EBFB
:10348000C401704A52F8210004F05AFF7849903183
:1034900041F824002B2101EBC4016A4A52F82100B3
:1034A00004F04EFF7249B43141F824002C2101EBA5
:1034B000C401644A52F8210004F042FF01466C48FE
:1034C000D83040F824102D2101EBC4015D4A52F898
:1034D000210004F035FF01466548FC3040F8241017
:1034E000641C082C9BDB5749D1F8B80104F028FF75
:1034F000604908605349D1F8BC0104F021FF5D49DF
:1035000048605049D1F8C00101A904F04AFF9DF874
:10351000040059494870002088709DF80600087022
:103520009DF80700087108464078012801DD002059
:10353000487051480078012802DD00204E4908708B
:103540004D480079012802DD00204B4908713D49B2
:10355000D1F8C40101A904F024FF002046494871B4
:103560009DF80500C8709DF806004449087008469B
:10357000007808B9012008703F48C078012802DDB2
:1035800000203D49C8703C48007828B90222082133
:103590000020FFF713F908E037480078012804D12C
:1035A000002208211046FFF709F90A2006F044F826
:1035B0003148C07828B9022209210020FFF7FEF81F
:1035C00008E02D48C078012804D1002209211046C6
:1035D000FFF7F4F80A2006F02FF82348007828B9FE
:1035E00002220A210020FFF7E9F808E01E480078CF
:1035F000012804D100220A211046FFF7DFF80A2033
:1036000006F01AF80F49D1F8C80101A904F0C9FE63
:103610009DF804000F4988709DF805100D48C17091
:103620009DF8061001719DF8071041710549D1F808
:10363000CC0101A904F0B5FE9DF804100548817184
:103640001EE000009410002000F806088C0B0020FB
:10365000CC0B00200C0C00204C0200205402002057
:10366000DD020020DC0200206D0200206E0200203E
:10367000200C002070020020F9020020E00200204F
:103680009DF80510C1719DF8061001729DF8071094
:1036900041723A49D1F8D00101A904F082FE9DF8A7
:1036A0000400374988729DF805103548C1729DF8AD
:1036B000061001739DF8071041733049D1F8D40109
:1036C00001A904F06EFE9DF804102D4881739DF849
:1036D0000510C1739DF8061001749DF80710417420
:1036E000FFF76BF80025392414E06D1C05F1750116
:1036F000224A52F82100694604F04AFEBDF8000053
:10370000204921F81400BDF802101E4A601C22F85E
:103710001010A41C512CE8DB1848D0F868021A4994
:10372000086008460068B0F5966F25D00846006826
:10373000B0F5166F20D008460068B0F5965F1BD034
:1037400008460068B0F5165F16D008460068B0F568
:10375000964F11D008460068B0F5164F0CD00846B9
:103760000068B0F5614F07D008460068B0F5E13F4A
:1037700002D04FF4964008607CBD000094100020F9
:103780000C0C0020FE1E0020E402002010B50024D6
:103790000DE0A01D3049095CE01C304A1154A01D09
:1037A0002D49095CE01C2E4A1154601C84B2022C85
:1037B000EFDB2C48007840B9022208210020FEF7F8
:1037C000FDFFC82005F038FF0BE0264800780128EF
:1037D00007D1002208211046FEF7F0FFC82005F0AF
:1037E0002BFFC82005F028FF1E48C07840B90222F0
:1037F00009210020FEF7E2FFC82005F01DFF0BE0C5
:103800001848C078012807D1002209211046FEF788
:10381000D5FFC82005F010FFC82005F00DFF1248A5
:10382000007840B902220A210020FEF7C7FFC82015
:1038300005F002FF0BE00C480078012807D10022B8
:103840000A211046FEF7BAFFC82005F0F5FEC82091
:1038500005F0F2FE10BD00009502002000020020DD
:1038600010020020F90200206D02002070B5002433
:103870000025002300262248C0782149897800EBE2
:1038800001241F484179007901EB00256019B0F54A
:10389000967F03D9022000F03DF830E0102019494E
:1038A00048701948007808700420C1F8C002144814
:1038B000807888701248C1781248C1701048017928
:1038C000104801710E4841790E484171002310E003
:1038D0005800801D0A49891C0A5C5800401D085C7C
:1038E00002EB002630B2E118084A22F81100581CF9
:1038F000C3B2AB42ECD302F0A1FC0548046070BD3A
:103900004C190020CC1300207C040020FE1E002057
:103910009C04002000B5024642F080000549487032
:103920000548007808700020C1F8C00202F086FC4B
:1039300000BD0000CC1300207C04002070B50024E2
:10394000002500232148C0782049897800EB012414
:103950001E484179007901EB00256019B0F5967F8A
:1039600003D90320FFF7D6FF2FE003201849487042
:103970001848007808700120C1F8C0020020887043
:1039800000231EE0E118144A32F8111088B2020A2E
:103990000F49D1F8C062891C8A55891ED1F8C0121E
:1039A000491C0B4A921C5054911ED1F8C012891C1C
:1039B000921EC2F8C012114691F8C012491E9170B1
:1039C0005B1CAB42DED302F039FC70BD4C19002009
:1039D000CC1300207C040020FE1E002000BFFEE768
:1039E00010B505A20621002004F0CCFA4FF47A703D
:1039F00005F022FE10BD00004F58590070B5044676
:103A00000D46002C02DCFF2C00DD0124034804706D
:103A1000284602F093FB02F05DFB70BD7C040020A1
:103A20000021054A1170002003E00021034A1154CF
:103A3000401C6428F9DB704728040020C40D0020D6
:103A400010B500202C49088002F028FFFFF71CFB6E
:103A500004F0A3FB00F0C3FE03F068FF00F004FDD8
:103A60004FF4964004F08AFD05F0CEFD4FF47A70D5
:103A700005F0E2FD00202149087021490870214924
:103A800008702149086021480862214808602148DF
:103A90000862002008602048086201201F49087061
:103AA00018201F49087001201E49087028201E494F
:103AB000087022201D49087030201D4908704520DB
:103AC0001C49087000201C4908601C490870FFF759
:103AD000B3FBFEF79DFE4FF4165000F00DFE1849A3
:103AE000087818490968FFF789FF07F0D9FB4FF4F8
:103AF0007A7005F0A1FD10BDE8020020DC02002074
:103B0000DD020020DE0200208C0B0020000060415E
:103B100000007AC400007A440000C842E00200209D
:103B2000EA020020EB020020EC020020ED0200205F
:103B3000EE020020EF020020F4020020F802002034
:103B4000840200207C02002008B500909DF801202E
:103B50000A709DF800204A7008BD0000F8B50646BE
:103B60000D4606F0010040F0300045EA0044200C0C
:103B70008DF80000200A8DF80100E0B28DF80200F7
:103B800020210648FFF754FB03226946684603F0EC
:103B900033FF20210148FFF74DFBF8BD0010014025
:103BA00030B589B00446FF220021092005F046F90E
:103BB000C5B215B1284609B030BD0122102105A8B3
:103BC00005F0F8F808B10120F5E7FF2200210A20EE
:103BD00005F034F9C5B20DB12846ECE701221021F9
:103BE00001A805F0E7F808B10220E4E79DF8140009
:103BF000800920709DF81400C0F3830060709DF868
:103C0000140000F00300A0709DF81500E0709DF80E
:103C1000160020719DF8170060719DF818000001D2
:103C2000E080E0889DF8191040EA1110E0809DF8CE
:103C3000190000F00F0020729DF81A00C009607290
:103C40009DF81A00C0F38010A0729DF81A00C0F30E
:103C50004010E0729DF81A00C0F30010207300209D
:103C600060739DF81A008007000D206120699DF89F
:103C70001B1040EA8100206120699DF81C1040EA79
:103C8000911020619DF81C00C0F3C20020759DF8C2
:103C90001C0000F0070060759DF81D004009A0752C
:103CA0009DF81D00C0F38200E0759DF81D0080079F
:103CB000400F2076207E9DF81E1040EAD11020761D
:103CC0009DF81E00C0F3840060769DF81E008007FA
:103CD000C00EA076A07E9DF81F1040EA5110A0767D
:103CE0009DF81F0000F01F00E0769DF82000C0093D
:103CF00020779DF82000C0F3411060779DF82000E8
:103D0000C0F38200A0779DF820008007000FE077C5
:103D1000E07F9DF8211040EA9110E0779DF82100A6
:103D2000C0F3401084F82000002084F821009DF8A2
:103D3000210000F0010084F822009DF82200C00953
:103D400084F823009DF82200C0F3801084F824003A
:103D50009DF82200C0F3401084F825009DF8220051
:103D6000C0F3001084F826009DF82200C0F3810003
:103D700084F827009DF8220000F0030084F8280052
:103D80009DF82300400884F82900012084F82A00C7
:103D900094F84E00042808D19DF81C000002206110
:103DA00020699DF81D10084420612069C0046064EA
:103DB0004FF40070A0649DF8040084F82C009DF876
:103DC00005000102E185E08D9DF806100843E085BD
:103DD0009DF8070001062163206B9DF8081040EA5A
:103DE00001412163206B9DF8091040EA0121216304
:103DF000206B9DF80A10084320639DF80B103420B7
:103E000001559DF80C10352001559DF80D00010657
:103E1000A163A06B9DF80E1040EA0141A163A06B65
:103E20009DF80F1040EA0121A163A06B9DF81010CE
:103E30000843A0633C20005D9DF8111040EA111179
:103E40003C2001559DF811000007010DE187E08F2E
:103E50009DF812100843E0879DF8130041084020A8
:103E600001550121412001550020A4E67CB5002028
:103E7000009001904021A848FFF7D1F928B1A7A0F0
:103E8000FCF702FA4FF0FF307CBD002401E0601C1B
:103E900084B2FF2CFBDD002404E0FF2005F04AF88B
:103EA000601C84B20A2CF8DB00240BE09522002170
:103EB000084604F0C3FFC5B2012D01D1002405E07E
:103EC000601C84B240F6FF708442EFDB00BFA4F5B3
:103ED0007060FF3804D199A0FCF7D6F90120D3E730
:103EE00087224FF4D571082004F0EAFFC5B2052DF2
:103EF00076D101209B4981F84E0001039A48FFF7D3
:103F000099F9FF2005F016F8002418E00022114668
:103F1000372004F093FFC5B2012D05D0294693A0A8
:103F2000FCF7B2F92846AFE700221146292004F039
:103F300085FFC5B20DB9002405E0601C84B240F6CF
:103F4000FF708442E2DB00BFA4F57060FF3823D12C
:103F500000240AE000221146012004F06FFFC5B2E0
:103F60000DB9002405E0601C84B240F6FF70844265
:103F7000F0DB00BFA4F57060FF3805D1294688A0AA
:103F8000FCF782F902207FE70020764981F84E0095
:103F90008FA0FCF779F902E097A0FCF775F90120F2
:103FA00000F036FA012200213B2004F047FFC5B2A1
:103FB0002DB129469AA0FCF767F9284664E7FF224D
:103FC0004FF40071102004F039FFC5B2002D7CD0F1
:103FD000294600E004E09FA0FCF756F9284653E785
:103FE000012D72D1FF2004F0A5FFC0B28DF80000B2
:103FF000FF2004F09FFFC0B28DF80100FF2004F005
:1040000099FFC0B28DF80200FF2004F093FFC0B208
:104010008DF8030029035448FFF70CF9FF2004F042
:1040200089FF9DF80200012874D19DF80300AA2899
:1040300070D1002419E000221146372004F0FEFE62
:10404000C5B2012D05D0294648A0FCF71DF9284628
:104050001AE700224FF08041292004F0EFFEC5B29C
:104060000DB9002405E0601C84B240F6FF70844264
:10407000E1DB00BFA4F57060FF3805D1294682A0BE
:10408000FCF702F90320FFE6002211463A2004F073
:1040900017FFC5B22DB1294688A0FCF7F5F82846D0
:1040A000F2E6FF2004F046FFC0B28DF80000FF20CA
:1040B00004F040FFC0B28DF80100FF2004F03AFF89
:1040C000C0B28DF80200FF2000E023E004F032FFD0
:1040D000C0B28DF803004FF480512348FFF7AAF8CF
:1040E000FF2004F027FF9DF8000010F0400F07D0DC
:1040F00004201C4981F84E007DA0FCF7C5F806E0BD
:104100000220184981F84E0084A0FCF7BDF8012078
:1041100000F07EF90020B7E6001001405468657297
:1041200065206973206E6F2063617264206465741A
:10413000656374656421200D0A0000005265736593
:1041400074206361726420696E746F2049444C4529
:10415000207374617465206661696C6564210D0A61
:104160000000000020130020000C014053656E6425
:1041700020434D4435352073686F756C642072653B
:104180007475726E20307830312C20726573706FC8
:104190006E73653D3078253032780D0A00000000DE
:1041A00053656E6420434D44312073686F756C64B1
:1041B0002072657475726E20307830302C207265F4
:1041C00073706F6E73653D3078253032780D0A005C
:1041D00043617264205479706520202020202020C3
:1041E00020202020202020202020202020203A20B5
:1041F0004D4D430D0A0000004361726420547970F4
:104200006520202020202020202020202020202069
:104210002020202020203A2053442056310D0A002F
:1042200053656E6420434D4435392073686F756C57
:10423000642072657475726E20307830302C207274
:104240006573706F6E73653D3078253032780D0A76
:104250000000000053656E6420434D4431362073E6
:10426000686F756C642072657475726E203078307A
:10427000302C20726573706F6E73653D3078253019
:1042800032780D0A0000000053656E642041434DF2
:104290004434312073686F756C6420726574757274
:1042A0006E20307830302C20726573706F6E7365BD
:1042B0003D3078253032780D0A00000053656E6479
:1042C00020434D4435382073686F756C64207265E7
:1042D0007475726E20307830302C20726573706F78
:1042E0006E73653D3078253032780D0A000000008D
:1042F00043617264205479706520202020202020A2
:1043000020202020202020202020202020203A2093
:10431000534420563248430D0A0000004361726442
:10432000205479706520202020202020202020206B
:10433000202020202020202020203A2053442056D6
:10434000320D0A002DE9F04105460E4617461D487C
:1043500090F84E00042800D06D0200222946122059
:1043600004F06CFD00F0FF08B8F1000F02D001204E
:10437000BDE8F081002414E006EB442000224FF455
:10438000007104F017FD58B1002211460C2004F012
:1043900055FD4FF480510C48FEF74CFF0220E7E733
:1043A000641CBC42E8D3002211460C2004F046FDF8
:1043B0004FF480510448FEF73DFFFF2004F0BAFDA2
:1043C0000020D5E720130020000C014070B5044602
:1043D0000E460E4890F84E00042800D064020022D9
:1043E0002146112004F02AFDC5B20DB1012070BD97
:1043F00001225102304604F0DDFCC5B20022114614
:104400000C2004F01BFD2846F1E7000020130020DB
:1044100010B586B004460020ADF804004FF4827059
:10442000ADF806000020ADF808000220ADF80A0043
:104430000120ADF80C004002ADF80E000020ADF8F0
:1044400012000720ADF814001CB93820ADF8100098
:1044500002E02020ADF8100001A9024803F0F7FAAD
:1044600006B010BD0038004008B50121192002F047
:1044700005FA0121880302F0F1F94FF46040ADF82C
:10448000000003208DF8020018208DF80300694613
:104490001548FEF73BFE4FF48050ADF800000320B6
:1044A0008DF8020010208DF8030069460E48FEF7D3
:1044B0002DFE4020ADF8000003208DF802004820BA
:1044C0008DF8030069460948FEF720FE4FF480513D
:1044D0000548FEF7AFFE0020FFF79AFF01210448D0
:1044E00003F09BFA08BD0000000C014000100140E1
:1044F000003800402DE9F04705460E46174647486C
:1045000090F84E00042800D06D02444890F84E0008
:1045100020B100223946172004F090FC00222946E1
:10452000192004F08BFCC4B214B10120BDE8F0875F
:104530004FF480513A48FEF77BFEFF2004F0FAFC6E
:10454000FF2004F0F7FCFF2004F0F4FC4FF000081B
:104550003CE0FC2004F0EEFC4FF0000907E016F808
:10456000010B04F0E7FC09F101001FFA80F9B9F52D
:10457000007FF4DBFF2004F0DDFCFF2004F0DAFC18
:10458000FF2004F0D7FCC4B204F01F00052806D0B9
:104590004FF480512248FEF74DFE0220C6E74FF04F
:1045A000000A0CE050460AF1010AB0F5802F06D14E
:1045B0004FF480511A48FEF73DFE0320B6E7FF2076
:1045C00004F0B8FCFF28EDD108F10108B845C0D3CC
:1045D000FD2004F0AFFCC4B20CB90420A6E74FF0F4
:1045E000000A0CE050460AF1010AB0F5802F06D10E
:1045F0004FF480510A48FEF71DFE052096E7FF2084
:1046000004F098FCFF28EDD14FF480510448FEF7E8
:1046100011FEFF2004F08EFC002087E7201300200D
:10462000000C01402DE9F04104460D462F4890F85A
:104630004E00042800D0640200222146182004F015
:10464000FDFBC6B216B10120BDE8F0814FF48051E8
:104650002748FEF7EDFDFF2004F06CFCFF2004F07E
:1046600069FCFF2004F066FCFE2004F063FC0027D8
:1046700005E015F8010B04F05DFC781C87B2B7F576
:10468000007FF6DBFF2004F055FCFF2004F052FC15
:10469000FF2004F04FFCC6B206F01F00052806D02C
:1046A0004FF480511248FEF7C5FD0220CCE74FF0D1
:1046B00000080CE0404608F10108B0F5802F06D153
:1046C0004FF480510A48FEF7B5FD0320BCE7FF20F8
:1046D00004F030FC0028EDD04FF480510448FEF780
:1046E000A9FDFF2004F026FC0020ADE720130020E8
:1046F000000C014000BFFEE710B586B00446012162
:10470000112002F0BBF80121C80402F0A7F8022032
:10471000ADF8140010208DF8170003208DF8160056
:1047200005A92248FEF7F2FC02212048FEF780FD91
:104730004FF48060ADF8140018208DF817000320A6
:104740008DF8160005A91948FEF7E0FC4FF400604B
:10475000ADF8140004208DF8170005A91348FEF7E2
:10476000D5FC01940020ADF808004FF40050ADF8DE
:104770000A000020ADF80C00ADF810000C20ADF8D8
:104780000E0001A90A4803F0A1FF4021084803F0E8
:10479000D1FE012240F22551054803F072FF0121AC
:1047A000034803F0DFFE06B010BD0000001001401A
:1047B000004C00400749084A127888540649097895
:1047C000491C054A117011460978642901DB002152
:1047D00011707047C40D002028040020704708B5F0
:1047E00025208DF8000001208DF8010000208DF8B3
:1047F000020001208DF80300684600F02DF8262005
:104800008DF8000000208DF8010001208DF80200D5
:104810008DF80300684600F01FF834208DF8000082
:1048200000208DF8010002208DF8020001208DF893
:104830000300684600F010F81C208DF800000020EE
:104840008DF8010001208DF802008DF80300684604
:1048500000F002F808BD000070B5002100230F220F
:10486000C4780CB3164C246804F4E064C4F5E06426
:10487000210AC1F10403CA40447804FA03F18478A0
:104880001440214309010F4C0678A155047804F027
:104890001F050124AC4005786D114FF0E02606EBB2
:1048A0008505C5F8004109E0047804F01F050124DE
:1048B000AC40054D0678761145F8264070BD0000E5
:1048C0000CED00E000E400E080E100E02DE9F041C3
:1048D00007460C469046262F81F06A81DFE817F0E4
:1048E00026001F01ED003D0826033403350356035F
:1048F00057037803D5033D083D0815013204B00481
:104900002A0594050F063D069506FE0608074F0783
:1049100069079907B007E0073E0854089208BE08E7
:10492000A8083D083D08D408C400DA00012C06D1CF
:104930000220FE4908700846007803F09DFA022C18
:1049400006D11420F94908700846007803F094FA5B
:104950000B2C56D10B20F64908702320F349087020
:1049600000220921F1480078FEF704FA002208210C
:10497000EE480078FEF7FEF9642004F05DFEED4895
:1049800000780009EC494843EA49097801F00F0131
:1049900040F27122514300EB0110E84909780909FE
:1049A00001EB4102C2EBC11100EBC100E349097800
:1049B00001F00F0101EBC10202EB011100EB8100DC
:1049C000DF490978090901EB810100EB4100DC496D
:1049D000097801F00F010844401EDA490860D34805
:1049E000007803F049FA0020D7490870D5480068DC
:1049F00002F0D8FD0120D4490870D248006802F0C6
:104A0000D1FD0C2C2ED1D14A0221242003F0BAFA78
:104A1000C82004F011FECE4A0321242003F0B2FA8C
:104A2000C82004F009FECB4A0421242003F0AAFA8E
:104A3000C82004F001FEC84A0521242003F0A2FA90
:104A4000C82004F0F9FDC54A0621242003F09AFA93
:104A5000C82004F0F1FD2420B4490870084600780D
:104A600003F00AFA01F0A4B8012C06D10020AF49E6
:104A700008700846007803F0FFF9072C09D12620BA
:104A8000AA4908700846007803F0F6F90A20A849F8
:104A90000870E7E7012C06D10020A44908700846F9
:104AA000007803F0E9F9072C06D124209F4908700B
:104AB0000846007803F0E0F9D4E7012C1BD100256B
:104AC0000AE0A748405DA749495D884201D0002619
:104AD00000E00126681CC5B2042DF2DB3EB10120C6
:104AE000924908700846007803F0C6F902E00D20EC
:104AF00003F0C2F900BF022C06D100208B490870D8
:104B00000846007803F0B8F9ACE7022C06D1022081
:104B1000864908700846007803F0AEF9A2E7012C38
:104B200006D10020814908700846007803F0A4F9F6
:104B3000022C28D18C48007870B98CA2092104205D
:104B400003F020FAC82004F077FD042077490870AC
:104B50000846007803F090F983480078012812D1C4
:104B600083488149097850F821200921042003F065
:104B700009FAC82004F060FD04206C49087008465A
:104B8000007803F079F9032C54D17748007820B1EC
:104B9000012806D0022809D107E0052063490870E2
:104BA00004E006206149087000E000BF00BF7148C2
:104BB0006D490978405C6E4951F8202009215B4815
:104BC000007803F0DFF9C82004F036FD6948664933
:104BD0000978405C684951F8202005215348007845
:104BE00003F010FAC82004F027FD62485E490978F6
:104BF000415C6148203050F8212006214B48007864
:104C000003F000FAC82004F017FD5A48801E00780F
:104C1000012804D14548007803F02EF90AE05548F0
:104C2000801E007830B90920404908700846007895
:104C300003F022F9042C57D14B48007820B1012809
:104C400006D0022809D107E007203849087004E09F
:104C500008203649087000E000BF00BF4548083012
:104C600041490978405C424951F8202009212F48E8
:104C7000007803F087F9C82004F0DEFC3D480830D6
:104C800039490978405C3D4951F8202005212748E1
:104C9000007803F0B7F9C82004F0CEFC354808309E
:104CA00031490978415C3548203050F821200621EF
:104CB0001E48007803F0A6F9C82004F0BDFC2D487A
:104CC000801E4078012804D11848007803F0D4F8F9
:104CD0000AE02848801E407830B90A20134908703D
:104CE0000846007803F0C8F8062C7DD124484278A5
:104CF00007210E20FDF762FDC82004F09DFC1C4832
:104D00001949097850F8212004210E2003F03AF9BE
:104D1000C82004F091FC1A484078A8BB19481249F1
:104D2000097850F8212005210E202EE0DF02002016
:104D3000DE020020EB020020A0860100EC02002031
:104D4000ED020020C4020020C002002089020020E1
:104D50008F020020950200209E020020A302002066
:104D6000380400202C040020DD0200204F58590098
:104D7000280200200E0C00208C0B0020CC0B002001
:104D8000F9020020200C002011E003F03BF9C820BC
:104D900004F052FCFD48FE49097850F82120062114
:104DA0000E2003F02FF9C82004F046FC19E0F74864
:104DB0002430F749097850F8212005210E2003F00E
:104DC00021F9C82004F038FCF0484830F04909784F
:104DD00050F8212006210E2003F014F9C82004F019
:104DE0002BFCEC48007800E010E0012807D10E20F1
:104DF000E94908700846007803F03EF806E00F2005
:104E0000E54908700846007803F036F8072C5FD1B2
:104E1000E048027907211020FDF7D0FCC82004F0FB
:104E20000BFCDE48DA49097850F8212004211020D3
:104E300003F0A8F8C82004F0FFFBD6480079D0B9E9
:104E4000D2486C30D249097850F821200521102031
:104E500003F0D8F8C82004F0EFFBCC489030CC49E0
:104E6000097850F821200621102003F0CBF8C82043
:104E700004F0E2FB19E0C548B430C549097850F8A0
:104E800021200521102003F0BDF8C82004F0D4FB38
:104E9000BE48D830BE49097850F82120062110209C
:104EA00003F0B0F8C82004F0C7FBBA48C078012866
:104EB00007D11020B84908700846007802F0DCFFDE
:104EC00006E01120B44908700846007802F0D4FFCB
:104ED000082C21D1B2480078012813D1B14805210E
:104EE0004268122003F08EF8AE48062102681220B4
:104EF00003F088F81220A84908700846007802F0EC
:104F0000BBFF09E0A648007830B91320A249087019
:104F10000846007802F0B0FF0A2C06D100209E4916
:104F200008700846007802F0A7FF9BE5012C0AD123
:104F300002F0ACFDFEF780F90120974908700846A1
:104F4000007802F099FF8DE500BF012C0AD102F034
:104F50009DFDFEF771F901208F4908700846007821
:104F600002F08AFF032C10D102F090FDFEF764F9E5
:104F70008D480178012088438B49087009208649B3
:104F800008700846007802F077FF6BE500BF012C3F
:104F90000AD102F07BFDFEF74FF901207E4908702F
:104FA0000846007802F068FF032C10D102F06EFD75
:104FB000FEF742F97C484178012088437A494870DD
:104FC0000A20754908700846007802F055FF49E547
:104FD000012C06D10120704908700846007802F0C3
:104FE0004BFF022C50D170480178012088436E4954
:104FF00008706748007820B1012806D0022809D13E
:1050000007E005206449087004E006206249087042
:1050100000E000BF00BF02F039FDFEF70DF9624865
:10502000801C5B490978405C5C4951F820200921CB
:105030005948007802F0A6FFC82004F0FDFA5A484B
:10504000801C53490978405C584951F820200521BB
:105050005148007802F0D6FFC82004F0EDFA52481B
:10506000801C4B490978415C5048203050F8212081
:1050700006214948007802F0C5FFC82004F0DCFA98
:105080004548007802F0F8FEECE4012C06D101203E
:10509000414908700846007802F0EEFE022C50D11B
:1050A00041484178012088433F494870384800789A
:1050B00020B1012806D0022809D107E0072036498F
:1050C000087004E008203449087000E000BF00BF09
:1050D00002F0DCFCFEF7B0F833480A302C490978BE
:1050E000405C2E4951F8202009212B48007802F01D
:1050F00049FFC82004F0A0FA2B480A302449097857
:10510000405C2B4951F8202005212348007802F00B
:1051100079FFC82004F090FA23480A301C49097826
:10512000415C2348203050F8212006211A4800789D
:1051300002F068FFC82004F07FFA1748007802F0F8
:105140009BFE8FE4012C0AD102F0A0FCFEF774F85C
:105150000120114908700846007802F08DFE022CEB
:105160005AD10C484178012088430A4948700846C2
:10517000427807210E20FDF721FBC82004F05CFADD
:105180000448407870BB0148243813E0440C0020E8
:10519000DD020020F9020020DF02002028020020AA
:1051A0006D020020700200200C0C00208C0B0020EF
:1051B000CC0B0020F949097850F8212005210E2058
:1051C00002F020FFC82004F037FAF548F3490978C7
:1051D00050F8212006210E2002F014FFC82004F010
:1051E0002BFA19E0EE482430EC49097850F82120D8
:1051F00005210E2002F006FFC82004F01DFAE84841
:105200004830E649097850F8212006210E2002F0A6
:10521000F9FEC82004F010FA032C10D102F036FC7D
:10522000FEF70AF8DF48017801208843DD4908705D
:105230000F20DD4908700846007802F01DFE11E4D9
:10524000032C5DD1D748017801208843D5490870E7
:105250000846427807210E20FDF7B0FAC82004F076
:10526000EBF9D248CD49097850F8212004210E20CD
:1052700002F088FEC82004F0DFF9CA484078C8B9B7
:10528000C7482438C549097850F8212005210E2047
:1052900002F0B8FEC82004F0CFF9C148BF49097830
:1052A00050F8212006210E2002F0ACFEC82004F0A8
:1052B000C3F919E0BA482430B849097850F82120D8
:1052C00005210E2002F09EFEC82004F0B5F9B44876
:1052D0004830B249097850F8212006210E2002F00A
:1052E00091FEC82004F0A8F902F0D0FBFDF7A4FF5E
:1052F0000E20AD4908700846007802F0BDFD18E0A8
:10530000012C16D16102AA48FDF792FF0222082162
:105310000020FDF753FAC82004F08EF902F0B6FB26
:10532000FDF78AFF0120A04908700846007802F0C6
:10533000A3FDFAE5012C0AD102F0A8FBFDF77CFFE2
:105340000120994908700846007802F095FD022C6A
:1053500046D1944801790120884392490871084652
:10536000027907211020FDF729FAC82004F064F91A
:105370008C480079D0B98A486C308849097850F84F
:1053800021200521102002F03DFEC82004F054F930
:10539000834890308149097850F821200621102057
:1053A00002F030FEC82004F047F919E07C48B43020
:1053B0007A49097850F821200521102002F022FEB8
:1053C000C82004F039F97648D8307449097850F883
:1053D00021200621102002F015FEC82004F02CF92F
:1053E000032C10D16F48C178012088436D49C870E3
:1053F00002F04CFBFDF720FF11206B4908700846B6
:10540000007802F039FDD3E3032C5ED16548C17802
:10541000012088436349C87008460279072110209B
:10542000FDF7CCF9C82004F007F960485B4909781A
:1054300050F821200421102002F0A4FDC82004F01F
:10544000FBF858480079D0B955486C305349097871
:1054500050F821200521102002F0D4FDC82004F0CE
:10546000EBF84F4890304D49097850F8212006213B
:10547000102002F0C7FDC82004F0DEF819E048480B
:10548000B4304649097850F821200521102002F057
:10549000B9FDC82004F0D0F84148D8303F49097818
:1054A00050F821200621102002F0ACFDC82004F0A5
:1054B000C3F802F0EBFAFDF7BFFE10203A4908707E
:1054C0000846007802F0D8FC18E0012C16D1210221
:1054D0003748FDF7ADFE022209210020FDF76EF9E5
:1054E000C82004F0A9F802F0D1FAFDF7A5FE0120CA
:1054F0002D4908700846007802F0BEFC58E3032CE2
:1055000010D12C480178012088432A49087002F004
:10551000BDFAFDF791FE1320234908700846007874
:1055200002F0AAFC23480078012804D180212048F9
:10553000FDF780FE03E080211D48FDF779FE012C78
:105540000AD102F0A3FAFDF777FE01201649087090
:105550000846007802F090FC2AE3032C2ED115486F
:105560000178012088431349087002F08FFAFDF793
:1055700063FE114805214268122002F043FD0E48E7
:1055800006210268122002F03DFD12200649087033
:105590000846007802F070FC29E00000DD020020DF
:1055A000440C0020F9020020DF0200202802002025
:1055B000001001406D02002070020020012C16D165
:1055C0008021FC48FDF734FE02220A210020FDF76D
:1055D000F5F8C82004F030F802F058FAFDF72CFE78
:1055E0000120F54908700846007802F045FCF348B0
:1055F0000078012804D18021EE48FDF71BFE03E06E
:105600008021EC48FDF714FED2E2012C5CD100258C
:105610000BE0EB48405DEB49495D884201D1012632
:1056200001E0002603E0681CC5B2042DF1DB00BFD9
:1056300086B900250BE0E248405DE349495D8842B8
:1056400001D1022601E0002603E0681CC5B2042D4A
:10565000F1DB00BF012E07D11B20D7490870084697
:10566000007802F009FC2FE0022E2AD10120D74950
:105670000870D7A20321172002F084FCC82003F091
:10568000DBFFD5A20321182002F07CFCC82003F028
:10569000D3FFCFA20321192002F074FCC82003F02D
:1056A000CBFFCDA203211A2002F06CFCC82003F02E
:1056B000C3FF1620C04908700846007802F0DCFBE2
:1056C00002E0152002F0D8FB022C06D10020BA49D6
:1056D00008700846007802F0CFFB69E2022C06D180
:1056E0001420B54908700846007802F0C5FB5FE257
:1056F000012C08D10020B5490870AF490870084650
:10570000007802F0B9FB022C08D10020AF490870E4
:10571000A94908700846007802F0AEFB032C15D1A9
:105720001021AF48FDF786FD0120A8490870C82068
:1057300003F082FF4FF081410120FDF7A5F917200A
:105740009D4908700846007802F096FB042C15D19C
:105750001021A348FDF76EFD01209C490870C82068
:1057600003F06AFF4FF081410020FDF78DF9192009
:10577000914908700846007802F07EFB18E2022C7E
:105780000AD198490120FDF77FF918208A4908704D
:105790000846007802F070FB042C09D100208B49E8
:1057A00008701620844908700846007802F064FBEF
:1057B000FEE1022C23D18C4A1168506806F088FB68
:1057C000054629464FF0834006F01CF987490860DA
:1057D0000A461168844A506806F072FA0546814903
:1057E00006F06BFB8249086002F050F9FDF724FDDA
:1057F0001620714908700846007802F03DFB042C21
:1058000006D116206C4908700846007802F034FB77
:10581000CEE1022C0AD173490020FDF735F91A2098
:10582000654908700846007802F026FB042C06D172
:105830001620614908700846007802F01DFBB7E1A8
:10584000022C23D16B4A1168506806F041FB0546D3
:1058500029464FF0834006F0D5F8644948600A466F
:105860005168644A506806F02BFA05465D4906F017
:1058700024FB5F49486002F009F9FDF7DDFC1620C2
:105880004D4908700846007802F0F6FA042C06D15B
:105890001620494908700846007802F0EDFA87E1C1
:1058A000012C09D12120444908700846007802F0F3
:1058B000E3FA082050490870022C06D100203E4926
:1058C00008700846007802F0D7FA032C09D121208D
:1058D000394908700846007802F0CEFA012046499E
:1058E0000870042C09D1212033490870084600783B
:1058F00002F0C2FA032040490870062C06D11E208F
:105900002D4908700846007802F0B6FA072C1BD122
:105910001F20294908703948C0683949086137484B
:10592000C068C8600846032102692348007802F075
:1059300069FB3348042102691F48007802F062FBCA
:105940001D48007802F098FA082C06D120201A4948
:1059500008700846007802F08FFA29E1012C09D17D
:105960002120154908700846007802F085FA0220C7
:1059700021490870022C06D11B200F4908700846E7
:10598000007802F079FA13E1012C09D121200A49AB
:1059900008700846007802F06FFA04201649087073
:1059A000022C06D11B20044908700846007802F03A
:1059B00063FAFDE000100140DF0200206D020020CC
:1059C0003E04002030040020340400206C0200203B
:1059D000342E30300000000032302E303000000015
:1059E000000801400000A0415C0200204C020020A1
:1059F0005402002064020020DE020020400D00203E
:105A0000740D0020012C09D122206B490870084632
:105A1000007802F031FA052068490870022C06D19E
:105A20001B20654908700846007802F025FABFE09F
:105A3000012C09D12220604908700846007802F044
:105A40001BFA06205D490870022C06D11B205A491A
:105A500008700846007802F00FFAA9E0012C09D17D
:105A60002120554908700846007802F005FA072001
:105A700052490870022C06D11B204F490870084675
:105A8000007802F0F9F993E0012C0AD100204A498C
:105A900008700846007802F0EFF9002047490870C6
:105AA00085E0022C17D146480068C82804D944482C
:105AB0000068643842490860002042490870404844
:105AC000006801F06FFD01203E4908703C48006805
:105AD00001F068FD6BE0032C25D13948006864288B
